:100000000C9434000C9451000C9451000C94510049
:100010000C9451000C9451000C9451000C9451001C
:100020000C9451000C9451000C9451000C9451000C
:100030000C9451000C9451000C9451000C945100FC
:100040000C9451000C9451000C9451000C945100EC
:100050000C9451000C9476000C9451000C945100B7
:100060000C9451000C94510011241FBECFEFD8E026
:10007000DEBFCDBF11E0A0E0B1E0EEEAF2E002C0E9
:1000800005900D92A030B107D9F721E0A0E0B1E0D2
:1000900001C01D92AC30B207E1F70E9427010C9419
:1000A00055010C94000080E480937C00089581E465
:1000B00080937C0008951092C50088E08093C4006E
:1000C00088E18093C10086E08093C20008959091FA
:1000D000C00095FFFCCF8093C6000895189B03C015
:1000E00080E090E0089581E090E008951F920F92E3
:1000F0000FB60F9211248F939F93EF93FF938091EC
:10010000780090E090930B0180930A018091790030
:1001100090E09093090180930801EAE7F0E0808184
:1001200080648083FF91EF919F918F910F900FBE1C
:100130000F901F901895C09608958091020190919C
:1001400003010097B1F40E945300EAE7F0E08081D8
:100150008064808380910A0190910B01909301014A
:100160008093000181E090E090930301809302016D
:100170000895019709F057C00E945700EAE7F0E0A0
:100180008081806480832091000130910101809101
:100190000A0190910B01820F931F909301018093AC
:1001A00000019C012D5F31092530310538F481E0D3
:1001B00090E00E949B000E94670031C09C012D547A
:1001C00031092530310538F482E090E00E949B002F
:1001D0000E94670024C09C012F5E31092530310543
:1001E00038F483E090E00E949B000E94670017C0F3
:1001F0009C012B5531092530310538F484E090E01D
:100200000E949B000E9467000AC0895A91090697C4
:1002100030F480E090E00E949B000E946700109202
:10022000030110920201089580E090E00CC024E6E2
:1002300027BD22E024BD21E025BDA99BFECF15BC32
:1002400022E025BB0196803A91058CF3089514B8FD
:100250000E945B0078948FE880937A00809104017B
:1002600090910501009729F010C00E941401219679
:1002700002C0C0E0D0E0CA30D105BCF30E946E00DD
:100280009093050180930401E9CF892B39F30E94F3
:100290009D00C0E0D0E003C00E9414012196CA3046
:0E02A000D105D4F30E941401D9CFF894FFCFFA
:00000001FF
